{
  "_format": "hh-sol-artifact-1",
  "contractName": "WavePortal",
  "sourceName": "contracts/WavePortal.sol",
  "abi": [
    {
      "inputs": [],
      "stateMutability": "nonpayable",
      "type": "constructor"
    },
    {
      "inputs": [],
      "name": "getAllStories",
      "outputs": [
        {
          "internalType": "string[]",
          "name": "",
          "type": "string[]"
        }
      ],
      "stateMutability": "view",
      "type": "function"
    },
    {
      "inputs": [],
      "name": "getTotalWaves",
      "outputs": [
        {
          "internalType": "uint256",
          "name": "",
          "type": "uint256"
        }
      ],
      "stateMutability": "view",
      "type": "function"
    },
    {
      "inputs": [
        {
          "internalType": "string",
          "name": "_story",
          "type": "string"
        }
      ],
      "name": "postStory",
      "outputs": [],
      "stateMutability": "nonpayable",
      "type": "function"
    },
    {
      "inputs": [],
      "name": "wave",
      "outputs": [],
      "stateMutability": "nonpayable",
      "type": "function"
    }
  ],
  "bytecode": "0x608060405234801561001057600080fd5b506100596040518060400160405280601181526020017f436f6e7472616374206465706c6f79656400000000000000000000000000000081525061005e60201b6102701760201c565b6101e1565b6100fa81604051602401610072919061015f565b6040516020818303038152906040527f41304fac000000000000000000000000000000000000000000000000000000007bffffffffffffffffffffffffffffffffffffffffffffffffffffffff19166020820180517bffffffffffffffffffffffffffffffffffffffffffffffffffffffff83818316178352505050506100fd60201b60201c565b50565b60008151905060006a636f6e736f6c652e6c6f679050602083016000808483855afa5050505050565b600061013182610181565b61013b818561018c565b935061014b81856020860161019d565b610154816101d0565b840191505092915050565b600060208201905081810360008301526101798184610126565b905092915050565b600081519050919050565b600082825260208201905092915050565b60005b838110156101bb5780820151818401526020810190506101a0565b838111156101ca576000848401525b50505050565b6000601f19601f8301169050919050565b610a55806101f06000396000f3fe608060405234801561001057600080fd5b506004361061004c5760003560e01c8063191bbe2a146100515780636fe15b441461006f5780639a2cdc0814610079578063aa50561b14610097575b600080fd5b6100596100b3565b60405161006691906106cf565b60405180910390f35b61007761018c565b005b6100816101e6565b60405161008e9190610773565b60405180910390f35b6100b160048036038101906100ac9190610575565b610231565b005b60606001805480602002602001604051908101604052809291908181526020016000905b828210156101835783829060005260206000200180546100f69061091e565b80601f01602080910402602001604051908101604052809291908181526020018280546101229061091e565b801561016f5780601f106101445761010080835404028352916020019161016f565b820191906000526020600020905b81548152906001019060200180831161015257829003601f168201915b5050505050815260200190600101906100d7565b50505050905090565b600160008082825461019e919061084a565b925050819055506101e46040518060400160405280600881526020017f257320776176657300000000000000000000000000000000000000000000000081525033610309565b565b60006102296040518060400160405280601781526020017f5765206861766520256420746f74616c2077617665732e0000000000000000008152506000546103a5565b600054905090565b60018190806001815401808255809150506001900390600052602060002001600090919091909150908051906020019061026c92919061046a565b5050565b6103068160405160240161028491906106f1565b6040516020818303038152906040527f41304fac000000000000000000000000000000000000000000000000000000007bffffffffffffffffffffffffffffffffffffffffffffffffffffffff19166020820180517bffffffffffffffffffffffffffffffffffffffffffffffffffffffff8381831617835250505050610441565b50565b6103a1828260405160240161031f929190610713565b6040516020818303038152906040527f319af333000000000000000000000000000000000000000000000000000000007bffffffffffffffffffffffffffffffffffffffffffffffffffffffff19166020820180517bffffffffffffffffffffffffffffffffffffffffffffffffffffffff8381831617835250505050610441565b5050565b61043d82826040516024016103bb929190610743565b6040516020818303038152906040527f9710a9d0000000000000000000000000000000000000000000000000000000007bffffffffffffffffffffffffffffffffffffffffffffffffffffffff19166020820180517bffffffffffffffffffffffffffffffffffffffffffffffffffffffff8381831617835250505050610441565b5050565b60008151905060006a636f6e736f6c652e6c6f679050602083016000808483855afa5050505050565b8280546104769061091e565b90600052602060002090601f01602090048101928261049857600085556104df565b82601f106104b157805160ff19168380011785556104df565b828001600101855582156104df579182015b828111156104de5782518255916020019190600101906104c3565b5b5090506104ec91906104f0565b5090565b5b808211156105095760008160009055506001016104f1565b5090565b600061052061051b846107b3565b61078e565b90508281526020810184848401111561053857600080fd5b6105438482856108dc565b509392505050565b600082601f83011261055c57600080fd5b813561056c84826020860161050d565b91505092915050565b60006020828403121561058757600080fd5b600082013567ffffffffffffffff8111156105a157600080fd5b6105ad8482850161054b565b91505092915050565b60006105c2838361064e565b905092915050565b6105d3816108a0565b82525050565b60006105e4826107f4565b6105ee8185610817565b935083602082028501610600856107e4565b8060005b8581101561063c578484038952815161061d85826105b6565b94506106288361080a565b925060208a01995050600181019050610604565b50829750879550505050505092915050565b6000610659826107ff565b6106638185610828565b93506106738185602086016108eb565b61067c81610a0e565b840191505092915050565b6000610692826107ff565b61069c8185610839565b93506106ac8185602086016108eb565b6106b581610a0e565b840191505092915050565b6106c9816108d2565b82525050565b600060208201905081810360008301526106e981846105d9565b905092915050565b6000602082019050818103600083015261070b8184610687565b905092915050565b6000604082019050818103600083015261072d8185610687565b905061073c60208301846105ca565b9392505050565b6000604082019050818103600083015261075d8185610687565b905061076c60208301846106c0565b9392505050565b600060208201905061078860008301846106c0565b92915050565b60006107986107a9565b90506107a48282610950565b919050565b6000604051905090565b600067ffffffffffffffff8211156107ce576107cd6109df565b5b6107d782610a0e565b9050602081019050919050565b6000819050602082019050919050565b600081519050919050565b600081519050919050565b6000602082019050919050565b600082825260208201905092915050565b600082825260208201905092915050565b600082825260208201905092915050565b6000610855826108d2565b9150610860836108d2565b9250827fffffffffffffffffffffffffffffffffffffffffffffffffffffffffffffffff0382111561089557610894610981565b5b828201905092915050565b60006108ab826108b2565b9050919050565b600073ffffffffffffffffffffffffffffffffffffffff82169050919050565b6000819050919050565b82818337600083830152505050565b60005b838110156109095780820151818401526020810190506108ee565b83811115610918576000848401525b50505050565b6000600282049050600182168061093657607f821691505b6020821081141561094a576109496109b0565b5b50919050565b61095982610a0e565b810181811067ffffffffffffffff82111715610978576109776109df565b5b80604052505050565b7f4e487b7100000000000000000000000000000000000000000000000000000000600052601160045260246000fd5b7f4e487b7100000000000000000000000000000000000000000000000000000000600052602260045260246000fd5b7f4e487b7100000000000000000000000000000000000000000000000000000000600052604160045260246000fd5b6000601f19601f830116905091905056fea2646970667358221220f4b6908292824f22da004ca0aa465dc9ef196a547fc29355702979ff4140be9664736f6c63430008040033",
  "linkReferences": {},
  "deployedLinkReferences": {}
}